:020000040800F2
:10000000C00A0020B502000801470008D5460008D4
:1000100000000000000000000000000000000000E0
:10002000000000000000000000000000DD470008A4
:10003000000000000000000003470008DF47000840
:10004000C7020008C7020008C7020008C70200086C
:10005000C7020008C7020008C7020008B122000852
:10006000C7020008C7020008C7020008C70200084C
:10007000C7020008C7020008C7020008C70200083C
:10008000E9470008F9470008094800080000000097
:10009000C7020008C7020008C7020008C70200081C
:1000A000C7020008C7020008C7020008C70200080C
:1000B00025500008C7020008C7020008C702000850
:1000C00000F002F800F0CBF812A030C8083824186D
:1000D0002D18AC4201D100F0C2F80FCCA246AB46BD
:1000E0000CA730CF2D1B083F3F197C427F1E544484
:1000F0002D090426F441641EAC4201D300F0AFF890
:100100000126334200D0FB1A3343984754465D46DC
:10011000DFE70000AC580000CC580000103A02D3D2
:1001200078C878C1FAD8520701D330C830C101D598
:1001300004680C6070470000704700000023002432
:1001400000250026103A01D378C1FBD8520700D30E
:1001500030C100D50B60704710B56E2902D100F098
:1001600051FD10BD702902D100F08BFE10BD662933
:1001700002D105F089FA10BD652902D105F084FA93
:1001800010BD672902D105F07FFA10BD612902D1A7
:1001900005F082FA10BD03681B0A01D380231943BE
:1001A000692902D100F0F8FC10BD642902D100F0E9
:1001B000F3FC10BD752902D100F0EEFC10BD6F29D3
:1001C00002D100F009FE10BD782902D100F046FEF0
:1001D00010BDE92902D100F0A5FD10BDE42902D12E
:1001E00000F0A0FD10BDF52902D100F09BFD10BD6F
:1001F000EF2902D100F0FCFD10BDF82902D100F07A
:100200003BFE10BD0368DB0901D38023194363293A
:1002100002D101F01EFB10BD732902D101F021FBB8
:1002200010BDE32902D101F02BFB10BDF32902D14F
:1002300001F02EFB10BD002010BD1FB501F088FBA2
:1002400004000020002105F009FA401C6060002035
:10025000002105F0EDF9E0601FBD10B510BD01F003
:1002600050FB1146FFF7E9FF04F022FF01F0E4FE26
:1002700003B4FFF7F2FF03BC01F0EAFE70B50546D8
:100280000C46164602E00FCC0FC5103E102EFAD2D7
:10029000082E02D303CC03C5083E042E07D301CC9D
:1002A00001C5361F03E021782970641C6D1C761E81
:1002B000F9D270BD0748804707480047FEE7FEE7D0
:1002C000FEE7FEE7FEE7FEE704480549054A064B60
:1002D00070470000E7470008C1000008C004002084
:1002E000C00A0020C0060020C0060020FEB504465B
:1002F00010460D46184373D0A6468C460020A41A1B
:1003000001469D4167D36646002701243D46B61A43
:100310009D4102D313463A462124654676462F0472
:10032000360C3E432D0CB61A9D4104D3150C1B040C
:100330002B4312041034654676462F06360A3E4398
:100340002D0AB61A9D4104D3150E1B022B4312022F
:100350000834654676462F0736093E432D09B61AFE
:100360009D4104D3150F1B012B431201241D65462B
:100370007646AF07B6083E43AD08B61A9D4104D392
:10038000950F9B002B439200A41C65467646EF0711
:1003900076083E436D08B61A9D411AD392185B4108
:1003A000641C16E00018764665464941B71A9D411F
:1003B0000191009009D36046B11A98418E46844657
:1003C000009801990025401C6941DD0752082A4325
:1003D0005B08641EE6D57246634603B0F0BDFFE7D6
:1003E0002046284307D00020C0430146C046C046EF
:1003F00022462B46F1E700200146F7E71CB50C46E4
:10040000064B7B4469460090204600F014FC0446ED
:100410000020694600F022FC20461CBD5708000061
:10042000034610B50B439B070FD1042A0DD308C810
:1004300010C9121FA342F8D018BA21BA884201D9B4
:10044000012010BD0020C04310BD002A03D0D307F7
:1004500003D0521C07E0002010BD03780C78401C2C
:10046000491C1B1B07D103780C78401C491C1B1B23
:1004700001D1921EF1D1184610BDF8B5042A2CD333
:10048000830712D00B78491C0370401C521E83074F
:100490000BD00B78491C0370401C521E830704D0FC
:1004A0000B78491C0370401C521E8B079B0F05D014
:1004B000C91ADF002023DE1B08C90AE0FFF7DEFEB1
:1004C000F8BD1D4608C9FD401C46B4402C4310C071
:1004D000121F042AF5D2F308C91A521EF0D40B7861
:1004E000491C0370401C521EEAD40B78491C03704F
:1004F000401C012AE4D409780170F8BD01E004C071
:10050000091F0429FBD28B0701D50280801CC90773
:1005100000D00270704700290BD0C30702D00270D0
:10052000401C491E022904D3830702D50280801C87
:10053000891EE3E70022EEE70022DFE782078B0750
:100540009A423FD170B5920F0AD0032402780B78FB
:10055000401C491C002A33D09A4231D12042F5D1A7
:10056000214EF40104C808C9951B9543254018D1B4
:100570009A420FD104C808C9951B9543254010D154
:100580009A4207D104C808C9951B9543254008D154
:100590009A42E7D012BA1BBA01209A4200D24042D6
:1005A00070BD12BA1BBA2DBA18241000E040190011
:1005B000E140401A05D12E00E64002D1083CF4D1BA
:1005C000D01A70BD02780B78401C491C002A09D053
:1005D0009A4207D102780B78401C491C002A01D0AE
:1005E0009A42EFD0D01A704701010101002203099D
:1005F0008B4273D3030A8B4258D3030B8B423CD3F9
:10060000030C8B4221D312E003460B437FD400221C
:1006100043088B4274D303098B425FD3030A8B4296
:1006200044D3030B8B4228D3030C8B420DD3090216
:10063000FF2212BA030C8B4202D31212090265D0B8
:10064000030B8B4219D300E0090AC30B8B4201D381
:10065000CB03C01A5241830B8B4201D38B03C01AC8
:100660005241430B8B4201D34B03C01A5241030B3F
:100670008B4201D30B03C01A5241C30A8B4201D3F0
:10068000CB02C01A5241830A8B4201D38B02C01A9B
:100690005241430A8B4201D34B02C01A5241030A12
:1006A0008B4201D30B02C01A5241CDD2C3098B42F7
:1006B00001D3CB01C01A524183098B4201D38B0174
:1006C000C01A524143098B4201D34B01C01A524117
:1006D00003098B4201D30B01C01A5241C3088B425C
:1006E00001D3CB00C01A524183088B4201D38B0047
:1006F000C01A524143088B4201D34B00C01A5241E9
:10070000411A00D201465241104670475DE0CA0FBF
:1007100000D04942031000D3404253409C4600227F
:1007200003098B422DD3030A8B4212D38901FC2289
:1007300012BA030A8B420CD3890192118B4208D35F
:10074000890192118B4204D389013AD0921100E0C1
:100750008909C3098B4201D3CB01C01A52418309D5
:100760008B4201D38B01C01A524143098B4201D302
:100770004B01C01A524103098B4201D30B01C01A2D
:100780005241C3088B4201D3CB00C01A52418308A7
:100790008B4201D38B00C01A5241D9D243088B42FD
:1007A00001D34B00C01A5241411A00D201465241B6
:1007B000104663465B1001D34042002B00D54942EE
:1007C000704763465B1000D3404201B504490028DE
:1007D00002DC491C084000E00846C046C04602BD95
:1007E000FFFFFF7F70477047704700000346CA0253
:1007F000400D10B510430A1504D00124E40720432E
:10080000002A05DB0A4CA21A04D4D040FF2A00DDDE
:10081000002010BD4A00002B01D0012000E0002084
:10082000101801225205D042F2D8C817C04310BD9B
:100830001E0400001F22030C02D10F22000402D06C
:10084000030E03D004E00020014670470002083A7E
:10085000030F01D10001121F830F01D18000921EEE
:10086000002801DB4000521E120551184205C0123B
:10087000411810467047C10FC90700D040420122FD
:1008800092071143D6E701218907D3E7F0B58B4CD6
:100890000F09254689B0BD437BD01D092646AE43CE
:1008A000FAD00E465E402740F60F3E43254071D0F9
:1008B00024012142FBD0FF24AD19A4042D1B039574
:1008C00001252D05DB02DB0AC9022B43C90A294396
:1008D0001E010901040F130F050121431701880BA5
:1008E000820391432D098C46A90B1E438A0395432D
:1008F000B30B9A0396433F09BA0B9403A74302969E
:100900002E467E430497B6464E19D7190C460196DB
:10091000544305977E43371B7646BF1B3601B646C8
:10092000BE0B361900967646BC043719009C01D3DD
:10093000641C00946400002F01D001263443029E01
:10094000049F754366467E430496760034196E0014
:1009500034190094029C019E1C196643751BAE4617
:10096000069465464519059C05956C4359437546A3
:100970000891691A0191049E01465143A41B0491F8
:10098000611A009C0791E10605D06109012211431B
:1009900002E072E06EE06109089D00272C0A2D0636
:1009A0006918049D7C412A0A2D066918019D62413F
:1009B000AC0DAD026D185441079A910D9202551974
:1009C0006141029A644658435443069B059A5A4330
:1009D000121A131B9A0E9B015B187A41010B00053A
:1009E000C3185141220A200644195A419A4200D2A2
:1009F000491C01204002814203D315230226F643FD
:100A000002E014230326F6432020C51AA940174606
:100A1000AF40DA400A4320460399D84009147318BE
:100A200019055118039A3843D2075140AC4009D0F8
:100A30000122944006D30022401C5141002C01D1D8
:100A4000400840001E4A934212D3012203989206A6
:100A5000904207DB0520400709181A480143C012DD
:100A6000414004E0032040070818C10FC9070020D7
:100A700009B0F0BD0020F107FAE705180C464C411B
:100A800011486D42A04115D394181A465A410E4898
:100A9000644290410ED301204A004005824209D3AE
:100AA0005A00824206D35940C90F084AC90700209C
:100AB0001143DDE700200649DAE700000000FF07E8
:100AC000FE070000FFFFFF7F0000E0FF0000F07F57
:100AD0000000F87F70B5044685690068C10601D53D
:100AE000302600E02026C00707D070BD626830467F
:100AF000A1689047206A401C20626D1EF6D570BD2B
:100B000070B5044685690078C00707D170BD62687A
:100B1000A16820209047206A401C20626D1EF6D5F7
:100B200070BD09684A0501D540B27047C905FCD5BA
:100B300000B2704709684A0501D5C0B27047C905BF
:100B4000FCD580B2704770B50C460546012A05D029
:100B50002878800600D5EA69002302E0012305E039
:100B60005B1C934202D2E05C0028F9D1A869E61828
:100B7000C01AA861286AC01828622846FFF7AAFF91
:100B800004E06A682078A968641C9047B442F8D3EE
:100B90002846FFF7B5FF70BDF7B500257529106829
:100BA000009914A611D0FFF7BCFF002802DA4042DA
:100BB00011A608E0009909688A0701D50FA602E08E
:100BC000490704D50EA6012501E0FFF7B3FF009FFA
:100BD0000024243704E000F080FE30313955641CD5
:100BE0000028F8D12B4632462146009800F057FAEB
:100BF000FEBD0000000000002D0000002B000000E2
:100C00002000000011680268006A530501D50870D1
:100C100009E0D30501D5088005E0130602D5C21707
:100C200005C100E0086001207047000001694A1C0E
:100C300002610878704700B58FB0029100210591DC
:100C4000054901937944039111460490684600F0E8
:100C500025F90FB000BD0000E5FFFFFF0A68107026
:100C6000521C0A6070470000F7B50446154686B06E
:100C70002B487844002703C83E460090019111E0BC
:100C800007986A467100415A02A800F005FE411C0F
:100C900007D02178890603D5E269391891420ED828
:100CA0003F18761C2078800602D5E069B84206DD40
:100CB000AE42E5DB07987100405A0028E0D1A069F8
:100CC000C01BA0612046FFF705FF154878445A383D
:100CD00003C800900020019116E041006A46079881
:100CE000415A02A800F0D8FD0590401C0AD000250A
:100CF00005E0626802A8A168405D90476D1C0598F8
:100D00008542F6D30498401CB0420490E5DB206A8B
:100D1000C01920622046FFF7F3FE09B0F0BD0000C5
:100D2000324A0000F7B5D21D0025D20815A6D20020
:100D3000F52905CA11D0002A05DA00214042914167
:100D400011A60A4608E0009909688B0701D50FA68D
:100D500002E0490701D50EA601251146009F002497
:100D6000243704E000F05EF930323A55641C024644
:100D70000A43F7D12B4632462146009800F08FF9FE
:100D8000FEBD0000000000002D0000002B00000050
:100D90002000000070B504460021243408E0550707
:100DA000D2086D0F303565545D072A43DB08491CB6
:100DB00015461D43F3D10468002310A2250708D56A
:100DC00020252C400C4304D0C46901230CA2641ECE
:100DD000C46100F064F970BD10B504462146106886
:100DE000FFF7A8FE002302462046FFF7D3FF10BD01
:100DF000D21DD108C9000CC9CCE7000000000000DA
:100E000030000000F8B50F460188090502D5224CD4
:100E10007C4402E0204C7C440E34054600212435FD
:100E200008E016071209360FA65D6E541E073243FE
:100E30001B09491C16461E43F3D1224604780023A1
:100E4000240705D5702F06D0002901D002231132C6
:100E500000F025F9F8BD01231032F9E770B504461A
:100E60000D4621461068FFF765FE0023024629461D
:100E70002046FFF7C7FF70BDD21DD308DB000CCBA7
:100E8000C0E730B4036820241268234303600823BA
:100E9000C36130BC0023B5E79C480000F3B50446AD
:100EA000002081B020622046E1688847002872D087
:100EB000252802D06268A168ABE0594F00267F4424
:100EC0002046E16888472028054608DB312D06D2F8
:100ED000781920380078002801D00643F0E7B007E1
:100EE00001D5042086430020E0610746A0612A2D39
:100EF0000AD0284604F094FB002827D0B800001937
:100F0000303D0090856119E00298BA00121902C8BC
:100F1000916102902046E1688847012F054617D16C
:100F2000E06900281FDA202086431CE000980A218F
:100F30008069484300994019303888612046E1684B
:100F40008847054604F06CFB0028EFD1012F0AD03A
:100F50002E2D08D12046E16888470546202006430B
:100F60007F1C022FC3DBA069002803DA4042A06186
:100F700001200643F00701D0102086436C2D0BD0D2
:100F8000682D09D04C2D3CD06A2D38D0742D38D026
:100F90007A2D36D016E040E0E1682F46204688479B
:100FA000B842054609D16C2F29D001208002E168A2
:100FB000064320468847054604E06C2F1DD0FF20DD
:100FC00001300643002D28D028464138192803D87F
:100FD0000120C00206432035204626602946029A99
:100FE0001646FFF7B9F8002810D001280BD0F61DDF
:100FF000F008C0000830029055E74020E1E780206B
:10100000D5E70020D3E7361D02964CE762682846F4
:10101000A1689047206A401C44E7206AFEBD00009A
:10102000164800000B4670B5024689078008084341
:1010300019469D08141AA9412509080705430809FE
:101040002C194841250A01060D43010A2C1941417A
:10105000200C0D0428430D0C00194D4100214019AE
:101060004D41C00869070843E908840F8D002543F6
:10107000840024184D4124196D41121BAB4107E037
:101080000925ED432C11521963410024401C614194
:101090001C460A250026551BB441F1D270BDFFB590
:1010A00004460D4681B0243000902168880604D59E
:1010B0001022E0699143216000E00120A84201DD97
:1010C000471B00E000270498A1697A191018081A34
:1010D000A0612078C00602D42046FFF7FBFC002662
:1010E00008E003986268A168805D9047206A401C10
:1010F000761C206204988642F3DB2078C0060AD56D
:101100002046FFF7E7FC06E06268A16830209047C0
:10111000206A401C206238467F1E0028F4DC07E06D
:1011200000986268A168405D9047206A401C206278
:1011300028466D1E0028F3DC2046FFF7E1FC2078EE
:10114000000602D5022005B0F0BD0120FBE700003B
:10115000FFB50C461E468FB003CA089009914F0098
:101160007D0D00D16D1E002108460020C0460321E0
:10117000099A89050840002A03DA8200801840088D
:101180000840800D01280A9002DD0020C0430A902B
:10119000089807430DD0F048F04928184843071431
:1011A000189800281DD07542291E1DDD0A9842425C
:1011B0001BE01898012802D00020302104E0002014
:1011C000F24305E02154401CB042FBDB30460022D4
:1011D000189B002121540F998B600A60486013B05E
:1011E000F0BDBD1B6D1CDFE70A9A002900DA6942D9
:1011F0000BA800F0F5FB0BAB07CB03AB07C30899BB
:10120000099800F059FC6B4607C30146D4480918F9
:10121000002D00910BDDD24903980A9A49424018EB
:10122000002303A90390684600F0B6FE08E0039986
:101230000A9A0023081803A90390684600F056FE96
:101240006B4607C30004000C03D00020C0434108D4
:1012500000E01046189A002A03D00022009215469A
:101260001EE0751E05D4FFF7DDFE303262556D1E9F
:10127000F9D501220843079602D000227F1C04E022
:101280002078302801D100227F1E002A069787D0BF
:101290001EE0112D07DAFFF7C5FE303262556D1CD6
:1012A00002460A43F5D1084303D00098002819D01C
:1012B0000EE00021681E05E0235C625C635422544A
:1012C000401E491C8142F7DBA81B401E0795069073
:1012D000079A18990020A0540F98079B069A8160DE
:1012E0000CC07CE711260020189059E7D21DF0B5FC
:1012F0000D460446D10893B0C90003C90C900D9166
:1013000004F078F902460D98C00F01D02D2007E0B7
:101310002068810701D52B2002E04007C00F400163
:10132000032A0F9001D0072A05DB034629462046F1
:1013300000F012FB0EE12078800601D5E76900E09D
:1013400006272846652D04D0662814D0672D69D15C
:101350002DE00020112F009001DB112300E07B1C09
:101360000CAA03A910A8FFF7F3FE11990026109804
:101370007D1C0E9142E001203B460CAAC0070B9059
:101380000120009003A910A8FFF7E2FE119D12981A
:101390001099002600280E9501D1781C0D18781B95
:1013A00002D446427D1C761EE81B00903AE0012FD5
:1013B00000DA01270020112F009001DD112300E049
:1013C0003B460CAA03A910A8FFF7C2FE11993D469F
:1013D000109800260E91217809070BD40E99A94286
:1013E00000DA0D4603A9012D04DD4A19203AD27F07
:1013F000302A06D0B84201DA011D04DA0121009139
:101400000FE06D1EEFE7002802DC86192D1A03E0BD
:10141000411CA94200DD0D46801B401C00900120AC
:10142000C0070B902078000705D40098A84202DB83
:101430000020C043009069460020C8720B9801212B
:1014400002AF0337C907884225D0022010902B2015
:1014500011900B9800280BDA40420B902D20119030
:1014600006E00B9800F039FA30317F1E0B9039708E
:101470001099481E00291090F3DC0B980028F0D139
:1014800011987F1E38702088000501D5452000E0A6
:1014900065207F1E387001A8C01BC01D0B900F98DF
:1014A000002800D0012041190098C01709180B9896
:1014B0000818A169081A401EA0612078C00602D44D
:1014C0002046FFF707FB0F98002805D06268A16847
:1014D0009047206A401C20622078C00625D520460F
:1014E000FFF7F8FA21E0002E07DB0E98B04204DD8A
:1014F00003A86268805DA16802E06268A16830208C
:101500009047206A761C401C20620098401E0028EC
:1015100000900AD100F01CFAC06862680168405C63
:10152000A1689047206A401C206228466D1E002852
:10153000D9DC07E062683878A1687F1C9047206A90
:10154000401C20620B99481E00290B90F2DC2046BB
:10155000FFF7D6FA032042E601FCFFFF104D000022
:10156000E1DFFFFFD21DF0B504460D46D0088DB077
:10157000C000466807683146384604F03BF802462A
:10158000F00F01D02D2307E02068810701D52B2320
:1015900002E04007C00F43016846002B037001D0F2
:1015A000012000E00020032A0A9001D0072A04DB72
:1015B0002946204600F0D0F92DE12078800601D49C
:1015C0000D2500E0E5697000400D0D2D01904BDA0E
:1015D000300D00210B9008460020C04603218905EC
:1015E0000840002E05DA82008018C20F1018401043
:1015F00008408015012801DD0020C043A900002318
:10160000182906D39C460A460123183A1B07D340E3
:1016100003E001221205CA4094460C31202902D36E
:101620003A46203900E032468A40002802DD002A8E
:1016300006D119E0002817D10121C9078A4213D326
:10164000194663467F185E41002806D10120C00775
:10165000824202D1084687439E430B98310D814256
:1016600002D00198401C01902088000502D57149E4
:10167000794402E06F49794419396B460A9830225F
:101680001A540A980A7C401C1A54401C0A9001986B
:10169000002801DC302000E031201872019A01207E
:1016A000002A02D0644BD21804E072003A4302D000
:1016B000614A521C0192002D02DC2278120703D5E8
:1016C0006A462E20507202200022864694460CE084
:1016D00032033601120F6D1E8B5C02AA1354624650
:1016E000521C401C9446052A01DA002DF0DC002231
:1016F00002AE08E03B0F3F01CB5C521C6D1E335421
:10170000401C082A01DA002DF4DC23689A0601D572
:1017100011E0401E704504DD3218203AD27F302A95
:10172000F7D0002807DD3218203AD27F2E2A02D1C6
:101730001A0700D4401E002D03DD3E223254401C07
:101740006D1E497C31540199401C002906DA2D2177
:10175000471C315401984042019003E02B21471C63
:10176000315401987D21C900884206DBFEF74CFF09
:101770003030F0557F1C019101E0642808DB0198AE
:101780006421FEF741FF3030F0557F1C019101E0EC
:101790000A2806DB01980A21FEF736FF3030F055A3
:1017A0007F1C01980A21FEF72FFF3031F1550A986E
:1017B000A1697F1C7A191018081AA0612078C00648
:1017C00002D42046FFF786F9216A6E460A98081867
:1017D000206204E062683078A168761C90470A981D
:1017E000401E0A90401CF5D12078C00602D5204644
:1017F000FFF770F902AE09E03078761C3E280DD074
:101800006268A1689047206A401C20627F1EF3D264
:101810002046FFF775F90DB00320F0BD206A40198E
:10182000206203E06268A168302090476D1EEDD30E
:10183000F8E700008840000001FCFFFF10B5436995
:10184000002B02D0C046C04601E0FFF77CF9012022
:1018500010BD1278014624310A7000224A7001221C
:10186000ECE711680022D243E8E710B54369002B8A
:1018700002D0C046C04601E0FFF7F6F9012010BDD6
:1018800012880146243182840022C2840122ECE7BE
:1018900011680022D243E8E7F8B516460C46054623
:1018A00000F04EF80368FF200230C05C012807D02A
:1018B000FF2C0FD8185D00280CD001202C70F8BD2B
:1018C000FF333246214608331868C71828460023DC
:1018D000B847F8BD0020C043F8BD01468008081A8B
:1018E00002091018020A1018020C1018C008820011
:1018F00012185200891A01E0401C0A390A29FBD249
:101900007047754600F0A0FBAE4605006946534699
:10191000C008C000854618B020B5FEF7D5FC60BCF5
:10192000B64600260027C0C5C0C5C0C5C0C5C0C5D5
:10193000C0C5C0C5C0C5403D490849008D46704777
:1019400010B500F005F8001D10BD00BF113D0000EE
:101950000048704730000020F8B51F4604460123B8
:101960000068DB02032601461840072A05DB002831
:1019700001D017A506E017A504E0002801D016A5A0
:1019800000E016A5102081432160A069C01E002F31
:10199000A06101D0401EA0612046FFF79BF8002FF8
:1019A00009D038466268A1689047206A401C2062CE
:1019B000C01C206206E0206AFAE762682878A16805
:1019C0006D1C9047761EF8D22046FFF799F8F8BDB7
:1019D0004E414E006E616E00494E4600696E6600D3
:1019E000F7B516468AB0334878446C4603467C33D4
:1019F000C06F5A689B680DC42E487844763003AC9B
:101A00000DC80DC43720C001081837211B30FEF760
:101A1000FBFD05460C46803D1B3C02D5644201207F
:101A200000E000200027099010E0E0070CD00C2017
:101A300020497843794432464C394118684601239D
:101A400000F054FA6B4607C364107F1C002CECD1E5
:101A5000184F7F442E3F16E0E80712D02001C0192E
:101A60000EC80691089307920068F04201D19819B8
:101A700008903246012306A903A800F037FA03AB09
:101A800007C36D10641C002DE6D10998002806D00C
:101A900032466946012303A800F07EFA05E00123DF
:101AA0003246694603A800F021FA0A9B07C30DB02D
:101AB000F0BD0000243D0000034640000A4610B57A
:101AC000400D0BD00121C9070F24A40200191C03EB
:101AD00064082143540D2143D20207E00021012074
:101AE000F2E7D40F490021435200401E0029F8DAE2
:101AF000DB0FDB07184310BDFFB50D46144685B05C
:101B00004868516803F05DFD00910190A868A168E4
:101B100003F057FD02910390A868616803F051FD3E
:101B2000029A12188242029201D2012000E00020A3
:101B3000019A0B18D2180028019202D08A4202D9C9
:101B400003E08A4201D2012000E000200099081839
:101B500000906868A16803F034FD029A121882426E
:101B6000029201D2012000E00020019A0B18D21845
:101B70000028019202D08A4202D903E08A4201D2AF
:101B8000012000E0002000990818009028682168D2
:101B900040004900400849084018FA49471814E035
:101BA00001994000C90F0843009001980299400034
:101BB000C90F08430190029803994000C90F0843D8
:101BC0000290039840007F1E039000980028E7DAF7
:101BD0000898002801D0EC4E00E00026B74201DA58
:101BE000012000E00020002804902AD0F71BF8060E
:101BF000C00E15D0029B2021091A039A8B401A436C
:101C00000392029A019BC2408B401A430292019AAE
:101C1000009BC2408B4000991A430192C140009141
:101C20007B110DD06F460320C11A03D5002182001D
:101C3000B95003E08A008100BA587A50401EF3D5AB
:101C4000374603980299002800D0012001430898E4
:101C50000291002808460CD0002800D001200199EC
:101C6000019A490508430121D20AC902D202019210
:101C700000E001210E9B0122D207012B02D0002B94
:101C800003D013E0002807D120E0904204D890420E
:101C90000CD1019B0B4209D0019B5918019105D130
:101CA0000099491C009101D17F1C009200280DD0A1
:101CB000102108460020C0460498002806D00F983E
:101CC000002803D0082108460020C0462868216863
:101CD000019B009A4840C10F0598C90739430EC0BF
:101CE00009B0F0BDFFB587B0099A08980899536804
:101CF0009268406889689646002203931746944686
:101D0000089A12685300099A5B0812685200520838
:101D10009A1A9E4BD4180A9A002A01D0352200E064
:101D2000402206920022012315460492DB07059308
:101D300024E0002D05D175460346039E4D1BB3419B
:101D400009D375466646039B491B049D9841059B34
:101D50007519AC465F4163463B4308D0059B049E22
:101D6000DD0776082E435B080496059301E0521EBA
:101D7000641EC50FED0749184041521C069B9A424C
:101D8000D7DB002D04D17546039A6B1A824101D22C
:101D900003200CE0039A0B466B404240134303D0F0
:101DA000014303D0012002E0022000E00020614650
:101DB00001910021009702910A99002905D06146FE
:101DC00040020143704B019102E080070023029022
:101DD0009C4201DA012000E0002007003AD01A1BE3
:101DE000D006C00E15D0029D2021019C091AC540C5
:101DF0008C402543029C8C4000D001242543019C4B
:101E00000295009DC4408D4000992C430194C1402F
:101E1000009154111DD06D460221002202290CD1DF
:101E20000320001B07E0002804DB8600AE59002ECB
:101E300000D00122401C0328F5DB081B02D58800D6
:101E40002A5004E08000285810438A00A850491EF8
:101E5000E3D51C460A98002802980CD0002800D030
:101E600001200199019A490508430121D20AC902BA
:101E7000D202019200E00121109B0122D207012B26
:101E800002D0002B03D013E0002807D11FE09042BE
:101E900004D890420CD1019B0B4209D0019B5918E8
:101EA000019105D10099491C009101D1641C009257
:101EB00000280CD0102108460020C046002F06D074
:101EC0001198002803D0082108460020C046089831
:101ED0000999019A009B006809684840C10F07985A
:101EE000C907214382600AC00BB0F0BD00B585B0C0
:101EF000019300920A460146002302A8FFF7FCFD69
:101F000002A807C805B000BDFFB50A461F4685B048
:101F10000799019301230091014602A8FFF7ECFD08
:101F200002990398049ECA0F4900D20700920F221B
:101F3000490892028C1A0021002800DB0C4645005B
:101F400013486D08844214D3079A002A04DA441E09
:101F50000026104DF64302E004460D460E461021C1
:101F600008460020C046002F03D004210846002068
:101F7000C0462005E90A0843009908436905F20AAA
:101F80001143ADE602C0FFFF013C0000FF3F00002F
:101F9000FF070000FFFFFF7F00B585B001930092AF
:101FA0000A460146002302A8FFF79CFE02A807C8C4
:101FB000A8E7FFB50A461F4685B00799019301239C
:101FC0000091014602A8FFF78DFE02990398049E36
:101FD000CA0F4900D20700920F22490892028C1AB8
:101FE0000021002800DB0C46450011486D088442A2
:101FF00014D3079A002A04DA441E00260D4DF64336
:1020000002E004460D460E46102108460020C04658
:10201000002F03D0042108460020C0462005E90A0D
:102020000843009908436905F20A114358E6000085
:10203000FF070000FFFFFF7F10B50446C046C04603
:102040002046FEF715F910BD00487047100000202B
:1020500001491820ABBEFEE72600020070470000D1
:1020600070B582B004460068816803220A40012AE4
:1020700002D10168C9074AD18168284A114208D0B3
:10208000606D102101436165A16D01200143A165CF
:102090003BE0816801220A438260214800682149AF
:1020A00003F094F901900198002817D00198401E80
:1020B00001900198002811D00198401E01900198CC
:1020C00000280BD00198401E01900198002805D0EF
:1020D0000198401E019001980028E7D100F0E6FC2D
:1020E0000546206801680020C9070ED1064602E0B7
:1020F0000068C0070ED100F0D9FC411B20680B29F5
:10210000F6D30168C907F3D1BAE702B070BD002069
:1021100002B070BD304602B070BDC04617000080EE
:102120000C00002040420F00F0B581B002F0D4FA5C
:1021300001287FD14A4D4B4C4BA60AE0B80052A172
:10214000085802F0DFFA2E6047A602F0C5FA01280F
:1021500070D100F0B7F8014628682154304602F0EB
:10216000D1FA2868215C0A290BD00D2909D0012950
:1021700062D07F2829D1002028604C4802F0C2FAA2
:10218000E3E70028E1D000262654207801274128E3
:102190003BD16078542838D1A0780028374634D015
:1021A00001275A2831493D4621D03F2810D13048D7
:1021B00002F0A8FA2F4802F0A5FA2F4802F0A2FA7E
:1021C0003746274D062FB9D321E0401C2860BCE7D5
:1021D000A01C082529492A46FEF722F9002804D028
:1021E00001271F4D062FA9D311E02049183162198C
:1021F00090783D280DD03F28194D02D0002804D1F9
:1022000021E0486902F07EFA3746062F96D306276A
:1022100094E7921C501C53783F2B114D02D19278B9
:10222000002A05D0C96888470746062F86D3EEE7FF
:102230008968F8E701B0F0BD002028601A4802F074
:1022400061FA01B0F0BDBFF34F8F0D480D49016039
:10225000BFF34F8F00BF00BF00BF00BFFAE7C0460B
:1022600044010020C400002025630000BC57000882
:10227000EE580008B458000838580008855900087E
:102280000CED00E00400FA056B58000885580008C2
:1022900072580008A2580008D35800085258000885
:1022A000925800087359000852580008D358000883
:1022B00080B5202000F01CFB80BDEFF3108072B6CB
:1022C000FEE7000010B5EFF31081EFF3108072B657
:1022D00041208200044B9C58185D641CE4B29C5061
:1022E00081F3108810BDC046AC030020F0B583B068
:1022F00004465020205C012802D1022003B0F0BD2A
:10230000264650360120307021688A6803273A40FB
:10231000012A02D10A68D2073AD181225200636DA4
:1023200093439A1C6265CA680292CA68BA43CA603B
:102330000190C0078A6802438A6000F0B7FB054637
:1023400020688168002913D500F0B0FB411B20688C
:102350000B29F6D381680029F3D5606D1021014364
:1023600002208143616501980021317003B0F0BD06
:10237000029A3A40C1681143C160606D0121014376
:1023800002208143616500200021317003B0F0BD5F
:10239000616D20220A4362650021317003B0F0BDF7
:1023A000F0B583B05022825C012A02D1022003B032
:1023B000F0BD04465034026893685B0719D40F6877
:1023C0004B683A483840012631040191710400916C
:1023D000B104374DAB4215D1936A834393620F42E8
:1023E000A44D23D10098074227D1019807422BD151
:1023F0002EE0416D20220A43426501200021217018
:1024000003B0F0BD936A034393620F42994D24D108
:102410000098074203D0B00529680143296001985C
:10242000074215D031062868084310E0F0052968F6
:102430008143296000980742D7D0B00529688143BD
:1024400029600198074203D0310628688843286034
:1024500000200021217003B0F0BDF0052968014380
:10246000296014480068144902F0B0FF0A21414372
:10247000029102980028CBD00298401E0290029848
:102480000028C5D00298401E029002980028BFD0B4
:102490000298401E029002980028B9D00298401E6F
:1024A000029002980028E7D1B2E7C046FFFF07007C
:1024B000011000000C00002040420F000068006C7A
:1024C00070470000F0B583B0012400283AD00646DA
:1024D0005036416D002903D0416DC9060AD52BE065
:1024E000002131708165054600F0CCF82846416D29
:1024F000C90621D401688A6852071DD4812252007E
:10250000436D93439A1C42658A6803252A40594CBF
:10251000012A02D10A68D2072AD142680126F707A8
:10252000554BBA4205D0B607B24202D0AD07AA4217
:102530000BD10D4610350DE000213170416D102298
:102540000A434265204603B0F0BD0D691D400D6190
:102550004A4B25462E681E402E602B6813432B6085
:10256000CA6818239A43CA608268CB681343CB6059
:1025700003462033012255062668AE432660456B8C
:102580006D0626682E4326608C68E40003D4140789
:102590008D6825438D600292CC68394D2540CD6011
:1025A0000469A41E65426541AC00C66826431D78D7
:1025B0006C033443066B26431C7B640034438669FA
:1025C000C769B6032643FC033443CE682643CE6076
:1025D000476A0E460C36FF240194C234A74216D136
:1025E0005A78012A029F1BD00B69C26B012A29D19C
:1025F000019A920093430B61044640341CCC134370
:1026000023430A691A430A610B693B431EE034689D
:10261000826A22433A4332605A78012A029FE3D108
:10262000002D07D0426D20231343436506465836DC
:102630003B4600E03B0432681A4332600B69C26BD0
:10264000012AD5D0DA0702D00B69BB430B614A6976
:1026500007239A434A61826B4B6913434B61002401
:102660008465416D3943022291434165204603B0A0
:10267000F0BDC04608270140FFFFFF3FFFFFC3FF3B
:102680001902FEFF10B586B0002105910491039157
:102690000291019100680E4A904201D006B010BD2F
:1026A0000C488268012301935C0214438460026831
:1026B0001A430260006818400090039103200290C2
:1026C00005200007009901A900F01EF906B010BD11
:1026D000002401402C100240F0B581B00D460446A4
:1026E000014650314069082802D10091082705E0D1
:1026F0002068C068C00767D100910C2700F0D6F9A8
:1027000006462168086838421ED001204202636DE7
:1027100013436365CA681205920F67D122462032BF
:102720001278002A62D10A6812075FD58A685207B8
:1027300053D4224654324B680C25AB434B60FF25E3
:1027400002351368AB434FE0681C39D0002D1BD114
:102750000868384221D008683842D6D10868384223
:102760001BD008683842D0D10868384215D00868B4
:102770003842CAD1086838420FD008683842E7D0DA
:10278000C3E708683842C0D100F090F9801B216887
:10279000A842F6D908683842F3D1002000990870A1
:1027A000606D042101436165032001B0F0BD08683C
:1027B0003842AAD108683842A7D108683842A4D163
:1027C00008683842F3D0A0E700200870606D20212F
:1027D00001436165012001B0F0BD626D2023134308
:1027E000636522465832A36D03431360A26900203B
:1027F000002A01D001B0F0BD0C220A6001B0F0BD8A
:1028000070B501688A680221520713D45022825C95
:10281000012A0FD00546503501212970C269012ACD
:102820000AD004460E46FFF71BFC024631462046FE
:10283000002A01D0084670BD416D094A0A400121B5
:102840000902511841650021816500681C2202605F
:1028500029708268042313438360084670BDC04614
:10286000FEF0FFFF10B5014624314A78022A14D148
:10287000026813680E24A343136013680124A34362
:102880001360026C406C1C2303402046984050604B
:102890004C70002000220A7010BD0422C263012087
:1028A00000220A7010BDB0B5014624314A78022AD0
:1028B00018D1026813680E24A3431360136801251E
:1028C000AB431360026C436C1C241C402B46A3409A
:1028D000536000240C704D70816B002900D0884734
:1028E0002046B0BD0421C1630120B0BD7047000087
:1028F00080B504490A68024202D00860FFF7F6FF7B
:1029000080BDC04614040140F0B58AB007900B6842
:10291000002B00D1B3E00E465A480799814201D0FE
:10292000062000E005200B210907079A52180A210A
:10293000CA410192052A00D30190079820300090E7
:10294000002215461746029619460BE021434E48D1
:1029500001607F1C31680846F840121DAD1C00283C
:1029600000D18CE001231846B8400140F1D0059316
:1029700006920391324603263146A9400495CD4381
:1029800051680C463440631E012B0895099110D8FC
:1029900007998B682B40D668049DAE401E438E601D
:1029A000099AD306DB0FBB404E6886431E434E6038
:1029B00006E0032C049D03D13446029E069A1DE0D6
:1029C0000799C868089A1040029EB368AB40034359
:1029D000CB60022C069A11D11C2010400F2181409F
:1029E000FB089B00009AD4588C43316981402143F5
:1029F000D150069A7068032409900440AC400799AE
:102A00000868089B18402043086009988003800FDD
:102A1000059B9ED04C490868184308600C20104064
:102A20000F21814003233C469C43184BE3588B43C2
:102A300001998140194315482150134881687068F5
:102A4000C30202D5039C214301E0039CA1430E4B2A
:102A50009960D968830201D5214300E0A1430A4B64
:102A6000D9605968830301D5214300E0A143064B97
:102A700059601968C00300D568E7A14367E70AB049
:102A8000F0BDC046001C0050000401400800014099
:102A900000690840411E88417047002A02D0182270
:102AA0008150704728228150704700000548006817
:102AB0007047C0461D48007802490A68101808602F
:102AC0007047C046B804002010B50848016840228D
:102AD0000A4302600024204600F00AF8002801D0D2
:102AE000012010BD00F026F8204610BD0020024055
:102AF00070B504467D20C0000C4E317802F066FCB3
:102B000001460B48006802F061FC00F07FFD0125E2
:102B1000032C08D8002806D10025E84321462A4680
:102B200000F020F87460284670BDC0460000002008
:102B30000C000020044801680122114301601107C4
:102B400042680A434260704734100240002805D4AE
:102B50001F21084001218140014801607047C046A3
:102B600000E100E0002805D40322034693430A4A0B
:102B70009A1803E00C220240064BD2188007C00EC0
:102B80008901C9B28140FF238340106898430843FC
:102B90001060704714ED00E000E400E0F0B589B08B
:102BA000066801252F02EA0211462031874B0E42AA
:102BB0007CD0059208902907143B186808400490BF
:102BC00002D118680843186001930291804C206874
:102BD000384211D1206838432060FFF767FF06466E
:102BE0002068384208D1FFF761FF801B6428F7D9BD
:102BF0000325284609B0F0BD0326340573484C3838
:102C0000069001682140089B5868024603942240C0
:102C10000096340491420AD102462240A242069E06
:102C20000DD19A68039B1A40914205D107E00146F5
:102C30002140A142069E02D131688903D9D4634B59
:102C400059680794214021D0079A1040814203D04F
:102C50000898007880060AD408988068079A10407F
:102C6000814213D008980068059908420ED0586830
:102C7000E9045A680A435A605A688A435A6001460E
:102C8000079A91435960384200D08CE00898066852
:102C900005990E42079C59D1B1066DD404990029BB
:102CA00004D1019C2168029A91432160F1070DD162
:102CB000B10713D4710719D4310720D43E4227D16C
:102CC00071062ED40025310693D535E0196803220C
:102CD0009143C2680A431A60B107EBD519680C2208
:102CE000914302690A431A607107E5D503218902FD
:102CF0001A688A434169114319603107DED50321FF
:102D000009031A688A438169114319603E42D7D08A
:102D1000032109041A688A43C169114319607106C5
:102D2000D0D5012189061A688A43416A1143196086
:102D30000025310600D45CE703218A041968914319
:102D4000006A08431860284609B0F0BD8268114641
:102D50002140A1420BD10398024003231B05069D8D
:102D60002C689C43194B089814432C60079C5A68A4
:102D70000A435A60B10691D5426811462140A142EA
:102D80000AD10398024003231B05069D2C689C432F
:102D90000E4B089814432C605A680A435A600499F1
:102DA000002983D17DE7FFF781FE0546884C074B5C
:102DB0005868800500D569E7FFF778FE401BA04200
:102DC000F5D9009D284609B0F0BDC0464C10024020
:102DD00000700040F0B583B0002846D00E46029047
:102DE0007A480068012101910840B04216D2774923
:102DF00008680125A84330430860754CFFF756FE6C
:102E00000746724800682840B04207D0FFF74EFEE0
:102E1000C01BA042F5D9032003B0F0BD029D286875
:102E20008107794C05D52168F0229143AA680A43AD
:102E30002260C0071CD16548006801273840B042B5
:102E400024D962490868B8430860614CFFF72EFE38
:102E500005465E480068C00718D0FFF727FE401BF4
:102E6000A042F6D9032003B0F0BD012003B0F0BDAD
:102E70006A6821460C390968012A34D0032A2DD00A
:102E8000022A72D1890301982BD52FE0029B186882
:102E900041075D4C06D50721090222688A43D9689B
:102EA00011432160000707D50720C0022168814334
:102EB0001869C0000843206021680807820F6D4828
:102EC0007A441279520097440154725B38042146C7
:102ED000083909680904490F884068E089010198A8
:102EE00004D403B0F0BD49070198FAD52168032046
:102EF0000190814311432160FFF7D8FD07466868C0
:102F0000334D03282BD002281ED001280AD1206877
:102F10000C21014004298ED0FFF7C8FDC01BA84238
:102F2000F5D909E020680007800F00D183E7FFF79B
:102F3000BDFDC01BA842F5D9019803B0F0BDFFF755
:102F4000B5FDC01BA842F7D820680C210140082914
:102F5000F5D170E7FFF7AAFDC01BA842ECD82068A6
:102F60000C2101400C29F5D165E789050198B8D5F8
:102F7000BCE720460C380068C00612D53F4816E072
:102F80008A02120F3C4B9A5C0902890F491C236884
:102F9000DB0309D420460C380068C00603D4384847
:102FA00002E0374803E03548504302F00FFA216849
:102FB0000906090F074A515CC840124908600648D3
:102FC0000068FFF795FD03B0F0BDC0460020024049
:102FD00088130000A4570008040000200948006876
:102FE000094909684905490F084A515CC8407047BA
:102FF00004480068044909688904490F034A515C80
:10300000C84070470C0000200C100240B457000864
:1030100010B5844AD1680807830F16487B441B7992
:103020005B009F440108070D01200004516809045A
:10303000490F884010BD1068C00613D50F4810BD59
:103040008B021B0F0C4CE35C0902890F491CD468EE
:10305000E40303D41068C00606D40948584302F0BC
:10306000B5F910BD064810BD0448584302F0AEF94A
:1030700010BDC04600127A00EC57000800093D0060
:103080000024F400F0B589B0002856D0654EF168F0
:103090000C220A400692012105910904F768049167
:1030A0000F4007900078C00710D00698082806D077
:1030B00006980C2800D0D7E0002F00D1D4E030686B
:1030C000800303D507984068002852D007980078FD
:1030D000800735D407980078C0064DD4079800784B
:1030E000000767D407990878400700D59CE0087866
:1030F000800600D51FE10798846A002C1AD0069834
:103100000C2800D068E1012C33D0F068049A02400A
:10311000079BD96A8A422CD10F21890401401A6B7E
:10312000914226D1032189050840596B88420598B0
:1031300000D055E2002009B0F0BD012009B0F0BD7B
:10314000079BD868810604D531682022114331607D
:1031500090430699042906D006990C2900D0A9E0CD
:10316000002F00D0A6E0316800283AD10422114097
:1031700037D0059809B0F0BD012044020699002916
:1031800000D1ADE03168079AD2690002002A00D16F
:1031900001E101433160FFF789FC054630682042B8
:1031A00000D008E1FFF782FC401B0228F6D903207B
:1031B00009B0F0BD306D07994969002900D1D9E007
:1031C000012108433065FFF771FC0546306D80072B
:1031D00088D4FFF76BFC401B0228F7D9032009B005
:1031E000F0BD1F21090272688A431969090211435F
:1031F000716031680922914301433160F168080729
:10320000820FF8485200C0467A4492885200974490
:1032100003002401D8013A0170680004410F0498AA
:103220008840CEE10010024001221107B06B084037
:10323000029002D1B06B0843B06301910392140273
:10324000EF4F3868C00523D4386820433860FFF753
:103250002DFC0546386820421AD1FFF727FC411B98
:1032600003206429F6D9BBE1306807994968049ABC
:10327000914209D005221204914200D0CDE0059977
:103280008904084330603068049908433060D3E013
:1032900007988168306D039B5F02002900D12AE105
:1032A00005221202914200D11FE1A14200D036E175
:1032B000204339E13168002800D1D3E0092291434D
:1032C00001433160FFF7F2FB05463068400700D547
:1032D00001E1FFF7EBFB411B03200229F5D97FE158
:1032E0003168214204D00799C969002900D177E1EA
:1032F0000720400371688143079B586A014371604E
:10330000FF21090672688A43196A090689187160E3
:10331000400B04998140F0680006000FB54A105C2C
:10332000C140B5480160B5480068FFF7E1FB0028DF
:1033300000D055E1D2E6B06807998969002900D12B
:10334000B3E001210843B060706B08437063480329
:10335000AD490A6802430A60FFF7A8FB0546B0685A
:10336000800700D5C7E6FFF7A1FB411B0320022918
:10337000F5D935E1012188433065FFF797FB054614
:10338000306D800700D4ADE6FFF790FB411B0320B2
:103390000229F5D924E181433160FFF787FB054617
:1033A0003068204200D199E6FFF780FB411B0320E3
:1033B0000229F5D914E10720400371688143079A77
:1033C000506A08437060FF20000671688143106AEC
:1033D00000064018706081E60120010632688A43C9
:1033E00032604706FFF762FB0546022C0AD13068BF
:1033F000384200D1C3E0FFF759FB411B03200229EB
:10340000F5D9EDE03068384200D193E6FFF74EFB86
:10341000411B03200229F5D9E2E0049A9043306071
:1034200030681040089008980598800432688243FC
:103430003260002900D192E005984404FFF736FB82
:1034400005463068204200D040E6FFF72FFB401BC6
:103450006428F6D9032009B0F0BD3068C0067CD5D9
:103460006248AEE0012081433160FFF71FFB054653
:103470003068400700D42DE6FFF718FB411B0320FE
:103480000229F5D9ACE08A02120F574B9A5C090267
:10349000890F491CF368049C234200D08EE03068F9
:1034A000C00600D589E0524888E001218843B06019
:1034B000480355490A6882430A60FFF7F7FA054650
:1034C000B068800700D416E6FFF7F0FA411B03202E
:1034D0000229F5D984E01F20000271688143079812
:1034E0000069000208437060F4E599020843306502
:1034F000306D204318E0A04330659802316D814360
:103500003165FFF7D3FA05463E4C306D38421AD08C
:10351000FFF7CCFA411B0320A142F6D960E0A0439B
:1035200030659902306D88433065FFF7BFFA054674
:10353000344C306D384206D1FFF7B8FA411B0320F6
:10354000A142F6D94CE002980028079900D0CEE5B8
:10355000B06B019A9043B063C9E5254831E0059806
:103560004404FFF7A3FA05463068204200D1ADE5D8
:10357000FFF79CFA411B03206429F5D930E0FD20B8
:103580000004F1688143079B2C330DCB08431043A3
:103590001843F0602748401C316801433160FFF751
:1035A00085FA04463068384200D0C3E5FFF77EFA5A
:1035B000011B03200229F5D912E00C48504301F009
:1035C00005FFF1680906090F0A4A515CC8400A491B
:1035D00008600A480068FFF78BFA002800D179E5F7
:1035E00009B0F0BD00127A00EC57000800093D0058
:1035F0000024F400A45700080C0000200400002060
:10360000007000408813000020000140401E010EA1
:1036100001D0012070470749074A506007480368F6
:103620000B40032189075918016000209060072191
:1036300011607047FFFFFF0010E000E020ED00E0A8
:1036400010B53822825C012A01D1022010BD024649
:10365000383202235370006843687024A3430C6817
:103660001C4383684460904CA04207DC0124A407FB
:10367000A04209D08F4CA04206D00AE08B4CA04259
:1036800002D08B4CA04204D18024A3434968194343
:103690008160002010700121517010BD3822825CC1
:1036A000012A01D1022070470346383300221A70E4
:1036B0000068016510467047B0B5002819D005466E
:1036C00038356978002905D100212970044600F0B9
:1036D00049F820460221697001680C68724B9942D2
:1036E00009DC0122920791420BD0E74A914208D0AF
:1036F00015E00120B0BD6D4A914202D06C4A914262
:103700000DD1702294438268224399420ADC01233E
:103710009B0799420CD0DC4B994209D020E022460D
:103720009942F4DD614B994202D0614B994217D125
:1037300003231B029A430369134380229343426984
:103740001A430A60C268CA62406888620120486100
:10375000A871A870E8702871687168700020B0BD09
:103760001346EAE7B0B586B00024059404940394A8
:10377000029401940068204988422DD01F49884254
:1037800023D0C149884235D11D490A68022002432D
:103790000A600C390A6801231A430A600968194053
:1037A00000910590049403940290402001900098A9
:1037B0000520000701A9FFF7A7F810252846214694
:1037C0002246FFF7CFF9284612E00D480168102283
:1037D0000A430260112405E00948016820220A43D7
:1037E00002601224002120460A46FFF7BBF920465A
:1037F000FFF7ACF906B0B0BD001400400010004067
:10380000381002403921415C01290FD1014639317C
:1038100002220A7000682449884209DC01218907D4
:1038200088420BD09849884208D00CE001207047AC
:103830001E49884202D01E49884204D1816807226D
:103840000A40062A03D0016801220A4302600020D0
:103850007047C0463921415C012912D101463931F6
:1038600002220A700068C26801210A43C260EC4A61
:10387000904208DC8A0790420BD0EC4A904208D074
:103880000CE001207047E74A904202D0E64A90429D
:1038900004D1826807231340062B02D002680A4332
:1038A000026000207047C046FF070140001401403D
:1038B0000008014000040040F0B53822825C012A73
:1038C00001D10220F0BD0246383202235370504E1F
:1038D0003346773B0468A0681840A0600D68002359
:1038E0004F2D1FDC1F2D36DD202D38D0302D36D04A
:1038F000402D00D087E0206A256A0126B543256265
:10390000A569F026B543CE6836012E43A6610A2587
:10391000A843496801432162A06847210143302040
:1039200081436AE06F2D26DD01204703BD4257D059
:103930000003854218461AD0702D64D1A06830402B
:103940004D688E68C9682E43090231430143A16066
:10395000A068772150E0002D01D0102D53D1A06830
:1039600070218843054307202843A0601846137040
:1039700001215170F0BD502D1BD0602D43D110207E
:10398000C043256A054025620F252D03A669AE4375
:10399000CD682D033543266AA561A025AE4349684D
:1039A000090131432162A16867250D430540A560E7
:1039B00024E0206A256A0126B5432562A569F02620
:1039C000B543CE6836012E43A6610A25A84349684F
:1039D00001432162A06857210143202081430CE06C
:1039E000A56835404E688F68C96837430902394376
:1039F0002943A1608003A1680143A16018461370A8
:103A000001215170F0BD0120137001215170F0BDF2
:103A1000FF00FFFF70B50168E24A914200D070BD1F
:103A2000017E0129FBD1194C26780021054600F0C2
:103A30007FFA002E0BD029680A6A0A239A430A6289
:103A4000134A1060086A022202430A6216E02968DB
:103A50000A6A0A239A430A620A6A0A620C4D2968B2
:103A6000401A02D8012109044018FCF70CFF094A4A
:103A7000094BFCF70BFFFCF7B9FE68602078414268
:103A80004141217070BDC046000400400800002084
:103A90007C0000209CC420B07268913FF0B582B0D9
:103AA0003823C35C012B02D1022002B0F0BD0346D3
:103AB00038330224E241032A00D984E07A4412799F
:103AC00052009744015C15360268146A0120844351
:103AD00014629669CC68019430C90095156AAE4F9E
:103AE0000839BA4274DC8707BA4277D0AD4F73E029
:103AF000012212020068046A944304624A68F024B6
:103B0000A243CC682401E4B2A218C469F325AC43F3
:103B10001443026AC461052464020D682D02254025
:103B2000A24352190262C2690C24A243C26189688D
:103B300023E0012212030068046A944304624A6885
:103B40001202364C1440CA68120392B21219F324BE
:103B50002402C569A5431543026AC56105246403AF
:103B60000D682D032540A2435219026203229202DE
:103B7000C4699443C461896809021C3045E0006847
:103B8000026A1024A24302624A681202234C1440C3
:103B9000CA68120392B21219F32424028569A5435C
:103BA0001543026A85610C682401A0252C40AA43B4
:103BB0001219026203229202846994438461896823
:103BC0000902183021E001200021197002B0F0BD77
:103BD000724FBA4202D0724FBA4202D103208643DA
:103BE0000098064310461830F027BE43019F3F015E
:103BF000FFB2F61996610A263440B5432C191462B7
:103C000094690C25AC439461896802680A43026098
:103C100000200021197002B0F0BDC046000FFFFF68
:103C2000FF0701400014014000080140000400406B
:103C3000B0B5002819D0054638356978002905D176
:103C400000212970044600F049F8204602216970DD
:103C500001680C68504B994209DC0122920791429D
:103C60000BD0504A914208D015E00120B0BD4B4A1C
:103C7000914202D04A4A91420DD170229443826807
:103C8000224399420ADC01239B0799420CD0454B01
:103C9000994209D020E022469942F4DD3F4B9942F7
:103CA00002D03F4B994217D103231B029A43036969
:103CB00013438022934342691A430A60C268CA626E
:103CC0004068886201204861A871A870E870287176
:103CD000687168700020B0BD1346EAE770470000C5
:103CE00002463A3200290DD0042906D008290FD106
:103CF0003C23C35C012B0FD039E03B23C35C012B79
:103D000035D109E01378012B31D1022313700DE076
:103D10003D23C35C012B2AD10223082903D00429A7
:103D200003D1537002E0937000E0D37002230A467F
:103D3000DA41032A1BD89200164B9A580068C368D0
:103D40001343C3601F221140012213468B40016AB6
:103D500099430162016A194301620F49884208DCF4
:103D6000910788420BD00F49884208D00CE001200F
:103D700070470A49884202D00949884204D18168C3
:103D800007230B40062B02D001681143016000207D
:103D90007047C046F8570008FF0701400014014073
:103DA0000008014000040040B0B504464020C5436F
:103DB00020680169890717D5C168890714D5294684
:103DC0003E310161012121768069800703D02046C0
:103DD000FFF720FE05E0204600F071F8204600F0D5
:103DE0006FF80020207620680169490718D5C1685E
:103DF000490715D529463C310161022121768069A8
:103E00008005800F03D02046FFF704FE05E0204622
:103E100000F055F8204600F053F800202076206886
:103E20000169090717D5C168090714D52946383132
:103E3000016104212176C069800703D02046FFF785
:103E4000E9FD05E0204600F03AF8204600F038F899
:103E50000020207620680169C90618D5C168C90606
:103E600015D529463031016108212176C0698005C8
:103E7000800F03D02046FFF7CDFD05E0204600F07F
:103E80001EF8204600F01CF800202076206801690A
:103E9000C90709D0C168C90706D029463F31016169
:103EA000204600F00FF820680169490606D5C16870
:103EB000490603D50561204600F045F8B0BD7047BE
:103EC00070470000B0B582B000681349884201D045
:103ED00002B0B0BD114800F04DFB002808D00146EB
:103EE0000F4802880F48504301F070FA044600E082
:103EF0000024012000F03EFB054660430A4901F022
:103F000065FAFCF7C0FC02460094019507480B4691
:103F100000F0F8FB02B0B0BD001400400000024405
:103F20007800F81FB80B0000F69F000090590008B9
:103F30000222D141032904D8890000684018406B4F
:103F400070470020704770477047704780B5FEF794
:103F5000B4F980BDF0B587B003460168CD690C683F
:103F600020200494029004406242624101200690A5
:103F7000C7023E462F362E40203E701E8641164315
:103F80008E6857D003938033019738460F300595DC
:103F90000542049D07D0E7482840012732463A40B1
:103FA000101800D09BE0102428462040474247418B
:103FB0000398006E0128069A44D00598C006069F13
:103FC00045D4002F46D00124A0050640724272411C
:103FD0000598C002069E039800D51646002E00D113
:103FE0008CE080222A4051425141059B1A06069AD4
:103FF00000D50A46002A00D190E140210D406A42D6
:104000006A415B0600D50692069A002A00D009E1B3
:10401000EFF3108584F31088026813688B431360F4
:1040200085F310880021C1660299C16700F0A0FAEB
:1040300007B0F0BD996E002900D1F3E0184688471B
:1040400007B0F0BD3A460598C006069FB9D5174699
:10405000002FB8D1039F3D4658350C628868400652
:1040600052D4698828886A88002A00D1DAE0884218
:1040700000D1D7E00693EFF31083012282F310887A
:1040800009256D013E68059139463768AF433760B1
:1040900083F31088EFF3108382F310880D68AE6805
:1040A0009643AE6083F31088029B069D2B6000232D
:1040B0008B660B66EFF3108382F310880A6815682D
:1040C000A543156083F3108802224A66059A801A78
:1040D00082B208461146FFF737FF07B0F0BD38023D
:1040E0002840464246410598C00706985CD1002802
:1040F0005DD00097059DA80761D469E022050A629A
:10410000FFF723FF07B0F0BD786F006841688AB2FF
:10411000002A00D186E01E462B889A4200D381E017
:1041200069800068800634D4EFF31081012080F3A9
:104130001088824A203206963B681E6816401E6030
:1041400081F31088EFF3108180F310883A68936848
:104150008343936081F31088EFF3108180F310881C
:104160003A6893684026B343936081F310880299BC
:10417000069A116000213966EFF3108180F31088F0
:1041800038680268A243026081F31088786FFEF7F6
:1041900069FB0220786628886988401A81B238460F
:1041A000FFF7D2FE07B0F0BD30460028A1D10F6264
:1041B0005868384358600097059DA80708D5002A1D
:1041C00006D0022008625868042606435E60059DFA
:1041D0006807019F07D5002A05D0042008625868A7
:1041E000022606435E602243564256410598000768
:1041F000069A009D00D53246002A04D108200862A4
:104200005A6802435A60A806049D05406A426A4102
:10421000059E3E42069D07D1002D08D05868002813
:10422000039D0DD107B0F0BD1546002DF6D10F62EC
:104230005868029A1043586058680028039DF1D0CE
:104240000298064062426241002E00D00692069813
:10425000002809D1AA6E002A06D02C4628461D4601
:1042600090472B46254621685868282202408868D6
:104270004021084080181E4606D12846FFF766FEFA
:104280000020706007B0F0BDEFF31080009F87F34F
:104290001088092252012B681C6894431C6080F32B
:1042A0001088EFF3108087F310882A689368BB4367
:1042B000936080F31088286E01280BD1EFF31080F3
:1042C000009A82F310882A6813681024A3431360AD
:1042D00080F310880298306000202866A86628685D
:1042E0008068400621D5EFF31080009A82F3108891
:1042F0002A6893688B43936080F31088696F002964
:1043000013D00D4888630846FEF7CDFA002800D187
:1043100088E7686F816B884707B0F0BDC16E0029E0
:1043200000D17FE7884707B0F0BD2846FFF70EFEB3
:1043300007B0F0BD20010004BD490008DFFEFFFF0B
:10434000B0B5002817D00446C06F002805D17820EA
:1043500000212154204600F02BF82420E06720683B
:1043600001680125A9430160204600F00BFC0028EC
:1043700003D02846B0BD0120B0BD606A002802D03D
:10438000204600F049FA0920C00221684A688243A9
:104390004A6088682A2290438860086801220243A4
:1043A0000A60204600F0A2FA05462846B0BD00008B
:1043B000B0B586B00024059404940394029401944B
:1043C0000068A549884201D006B0B0BD0120410473
:1043D000114AD3680B43D36011680143116011681F
:1043E00001400091042005900320049003940220D2
:1043F00002900C20019000980520000701A9FEF70B
:1044000083FA1C25284621462246FEF7ABFB2846A8
:10441000FEF79CFB06B0B0BD2C100240F0B581B099
:104420008023C358202B12D1012400290CD0002A4C
:104430000AD001231C038568A5420CD1CC070AD001
:104440000469002C07D11C46204601B0F0BD0224AF
:10445000204601B0F0BD0024046605680A4EB5424E
:104460000DD06D682D020AD5EFF3108583F3108807
:104470009B06066837681F43376085F3108800F095
:1044800097FC204601B0F0BD0048004080B500F028
:10449000E5F880BDF0B585B004930646C06F2028CE
:1044A00010D1012000290BD0002A09D001200503DA
:1044B000B368AB4209D1CB0707D03369002B04D1D5
:1044C00005B0F0BD022005B0F0BD01913446503476
:1044D000304684300021029101602120F0671746A8
:1044E000FEF7E4FA039067802780B068A84202D103
:1044F0003069002801D0019D0AE000250198029052
:1045000006E02878316888626D1C6088401E6080F3
:104510006088002816D0049800908021002730463B
:104520003A46039B00F0AEFC00281AD1002DE8D1DA
:10453000029A10880D49084031688862921C0292E4
:104540003D46E2E704980090402100223046039B5C
:1045500000F098FC2021F1670028B1D0032005B0BD
:10456000F0BD2020F067032005B0F0BDFF01000082
:1045700070470000F0B585B0019022480168090736
:1045800008D40168090705D40168090702D4016845
:104590000907F3D50127790202911B4A10680843E5
:1045A00010601A4D002628463146FDF79FFE3C0359
:1045B000601C04901648039003AF28463946FDF767
:1045C000EFFE04940198039028463946FDF7E8FE73
:1045D0002846FEF715F9F1432846FEF77DF82846F0
:1045E000FDF76CFF29688A68022313438B6003225E
:1045F0000A60054B1968029A9143196080B205B0B0
:10460000F0BDC04604700040341002404802002053
:10461000FFFF070010B504466D488460002C1AD0D7
:104620000D492160806800210C224B23DB0143608F
:104630008160C160016142618161C1610162416269
:10464000FFF77EFE002801D0FDF737FE604901220A
:104650002046FFF7E3FE10BD0044004070B5012482
:1046600021020F4D6A580F4B1B78AB544122920028
:10467000AE586A58531CDBB2B34208D10D21A9547D
:1046800009A10646084600F03DF8304600E06B50B0
:104690002121C9006C5003492246FFF7BFFE70BDBF
:1046A000AC03002070000020756172745F636F6E50
:1046B000746578742E6275666652782062756666D7
:1046C0006572206F766572666C6F772025640D0ABF
:1046D00000000000FEE70000EFF31080EFF3108110
:1046E00072B641218900054A515801231B02D25854
:1046F00080F31088881A411E88417047AC0300205F
:10470000FEE7704783B0F0B5A4B0044629A80EC0F8
:1047100029A82390EFF310800290EFF3108072B677
:10472000239A03A82146FBF769FE0346C5B2284E2B
:104730007088281801210F027488FF2808D825489E
:10474000001903A92A46FBF798FE7088441913E064
:104750007088204908186142CAB2009203AD294608
:104760000193FBF78AFE0098291801980019C4B23A
:1047700018482246FBF781FE7480029880F3108867
:104780007088C019B188401A134C2040012819DBE9
:10479000104DEFF31080EFF3108172B6B1884A1C10
:1047A000D2B2B28080F310886918B0683B462C33CF
:1047B0000122FFF76FFE7088C019B188401A2040AF
:1047C0000028E6DC24B0F0BC01BC03B00047C046C2
:1047D0007000002048010020FF000080704780B575
:1047E000FEF768F980BD704780B50248FFF7DCFA34
:1047F00080BDC0468400002080B50248FFF7D4FA8F
:1048000080BDC046A402002080B50248FFF7CCFA64
:1048100080BDC046E4020020B0B5416ACA070CD191
:104820008A0714D44A071CD40A0724D4CA062CD4F5
:104830008A0634D44A063CD44CE001225204036870
:104840005C689443826A22435A608A07EAD501224F
:10485000120403685C689443C26A22435A604A07A0
:10486000E2D50122920403685C689443026B224300
:104870005A600A07DAD50122D20303685C689443C0
:10488000426B22435A60CA06D2D501221203036842
:104890009C689443826B22439A608A06CAD501229F
:1048A000520303689C689443C26B22439A604A0691
:1048B00010D501221305026854689C43056C2C43F3
:1048C00054609D4206D103235B0554689C43436CAE
:1048D00023435360090607D50121C90402685368C0
:1048E0008B43806C18435060B0BD0000F0B583B0BE
:1048F0000446064678360025F560FEF7D7F80346ED
:1049000020680168090721D502952B4800900125F0
:104910006905002220461F4600F0B4FA002812D094
:10492000EFF3108085F3108821680A6880239A438A
:104930000A6080F31088032020227C21029D6250AF
:10494000357003B0F0BD20683B46029D006840070B
:1049500026D5194800900127B9050022204600F00D
:1049600091FA00281CD0EFF3108087F310880921FA
:104970004901226813688B43136080F31088EFF3BA
:10498000108087F3108821688A68BA438A6080F3B0
:1049900010880320202280216250357003B0F0BDC2
:1049A0002020E067B060256664212A4628466250D0
:1049B000357003B0F0BDC046FFFFFF0180B5806ACF
:1049C0000146523100220A8152214252FFF7BEFABB
:1049D00080BD0000F0B581B08021415802682229D5
:1049E00010D1014658318B88526A1A40436D1A80A3
:1049F0004A88521E4A809A1C42654A88002A07D07B
:104A000001B0F0BD906908210143916101B0F0BD92
:104A100003468033EFF31084012282F310880925C6
:104A20006D0106683768AF43376084F31088EFF391
:104A3000108482F310880568AE689643AE6084F3F4
:104A4000108820241C600023836643660468C74DD9
:104A5000AC420DD0646824020AD5EFF3108482F3CF
:104A60001088950606683768AF43376084F310886E
:104A7000046E012C15D10366EFF3108382F31088C6
:104A80000468256810229543256083F31088036825
:104A9000DC69E40600D51A620988FFF755FA01B00F
:104AA000F0BDFFF7F3FC01B0F0BDC046F0B581B03A
:104AB000802141580268222911D1014658318B8842
:104AC000526A1A40436D1A704A88521E4A80426DDB
:104AD000521C42654A88002A07D001B0F0BD906997
:104AE00008210143916101B0F0BD03468033EFF32B
:104AF0001084012282F3108809256D010668376849
:104B0000AF43376084F31088EFF3108482F310888A
:104B10000568AE689643AE6084F3108820241C605C
:104B20000023836643660468904DAC420DD06468F0
:104B300024020AD5EFF3108482F3108895060668E4
:104B40003768AF43376084F31088046E012C15D1A9
:104B50000366EFF3108382F310880468256810223F
:104B60009543256083F310880368DC69E40600D56B
:104B70001A620988FFF7E8F901B0F0BDFFF786FC7B
:104B800001B0F0BDF0B581B0044601680868764A0E
:104B90000240A06823690343606918431043E26937
:104BA00010430860032630034B688343E0681843D2
:104BB0004860A5696D4B994202D0206A284300E005
:104BC00028460B252D028F68AF4307438F60684846
:104BD000814214DD0027674881421FD06648814228
:104BE0001CD06648814243D16648C06C8007000FE4
:104BF00066A52F580125E803994213D13DE060488E
:104C0000814205D0994233D15E48C06C000A01E070
:104C10005C48C06C0C2505405B4847590125E803FA
:104C200099422AD0824212D1082F00D996E0C0467C
:104C30007F443F797F00BF44043C4691529191915B
:104C40007300FEF7CBF9002800D069E085E0082F5B
:104C500000D983E07F443F797F00BF44042F3A7F2F
:104C6000457F7F7F7200FEF7B9F9002869D174E0B3
:104C700010270125E8039942D4D1082F6ED8C046E9
:104C80007F443F797F00BF44046909690F696969FE
:104C90003500FEF7A3F900282CD15EE03948006802
:104CA000C00626D53E4825E0FEF7B2F9002821D1FE
:104CB00053E0FEF79DF9002832D14EE0FEF798F957
:104CC00000283ED149E02F480068C00627D5344867
:104CD00026E02C480068C00632D5314831E0FEF7A6
:104CE00097F900281CD138E0FEF792F9002828D166
:104CF00033E02A4862685643B0422FD311038842FA
:104D00002CD8010E56080002002380195941FBF7E8
:104D1000EDFA25494118254A91421CD31EE01F484F
:104D2000400061684A08101800F050FB0246103A33
:104D30001C498A4212D201400007400F08430AE092
:104D4000164861684A08101800F040FB0146103907
:104D5000144A914202D22168C86000250020A06652
:104D6000E066284601B0F0BDF369FFEF004800405F
:104D7000FF4B0040004C0040005000400038014014
:104D800000440040001002402858000801000000C4
:104D90000400000002000000080000000024F400ED
:104DA00000093D00F0FF000000FDFFFF00FD0F00C7
:104DB00070B55823C25241650021816603465833BD
:104DC0005A80846802468032002C12D001252E07BA
:104DD000B44208D02D03AC4214D10469002C0ED18A
:104DE000254C9C800FE00469002C05D03F249C805A
:104DF00009E00469002C02D07F249C8003E0FF249A
:104E00009C8000E09980516022211160EFF31082B4
:104E1000012181F3108803689C680C439C6082F335
:104E2000108802690B0384689C4204D1002A14D0C4
:104E3000124A826603E0114B8366002A0FD0EFF31B
:104E4000108281F3108809214901006803680B432F
:104E5000036082F31088002070BD094A8266EFF378
:104E6000108281F310880068016820230B430360DF
:104E700082F31088002070BDFF010000AD4A0008D9
:104E8000D5490008F0B587B0069315460F4603686C
:104E9000D9693940C91B4A424A410026AA4220D159
:104EA0000C9C002C20D0611C23D1D9693940C91B2E
:104EB0004A424A41AA4214D1D9693940C91B4A42DF
:104EC0004A41AA420DD1D9693940C91B4A424A41D7
:104ED000AA4206D1D9693940C91B4A424A41AA426D
:104EE000E3D0304607B0F0BDFDF7E0FD032007B08A
:104EF000F0BD029601467831039101210191C9026A
:104F00000491059006E0C9693940CA1B51425141DC
:104F1000A9424ED1FDF7CAFD0699411A0323A142C9
:104F200044D8059801680A685207ECD5CA69120787
:104F300042D4CA692646049C22423446E3D01F4626
:104F400004980862EFF31082012181F3108809238D
:104F50005B010598046825689D43256082F31088ED
:104F6000EFF3108281F31088059803689C688C43E6
:104F70009C60059882F31088026E012A0BD1EFF332
:104F8000108281F3108801680B681024A3430B6022
:104F9000059882F310882021039B99600022026605
:104FA00082661A70D960384607B0F0BD184607B05F
:104FB000F0BD029807B0F0BD08250D62EFF3108137
:104FC000019880F3108809225201059B1B681C6818
:104FD00094431C6081F31088EFF3108180F31088F4
:104FE000059A1268936883439360059B81F3108848
:104FF000196E01290CD1EFF31081012282F3108880
:105000001A6813681024A3431360059B81F310886A
:105010002021039A91600021196699661170D5606C
:1050200007B0F0BD80B5DE48FEF794FF80BDC046F6
:1050300080B5052000072021FDF72AFD012804D0B6
:1050400007A0FFF75FFB002080BD02A0FFF75AFB1F
:10505000002080BD4C4544206973204F4E0A00005B
:105060004C4544206973204F46460A0080B506A18E
:10507000FBF764FA0246401E82410520000720210A
:10508000FDF70BFD002080BD30000000BFF34F8F07
:10509000044805490160BFF34F8F00BF00BF00BF48
:1050A00000BFFAE70CED00E00400FA0501207047AC
:1050B000A2B0FDF709FD14AD38212846FBF73CFAF4
:1050C00000241294119410940F940E9404A8282193
:1050D000FBF732FA0326F002A5490A68824301274A
:1050E0001497F802101808601E940520000415900B
:1050F0002846FDF7C7FF002803D0EFF3108072B6F3
:10510000FEE7039612941194109402250F950F2632
:105110000E960EA82146FDF75DFE002803D0EFF3A2
:10512000108072B6FEE702960894049504A8FDF775
:1051300035FD002803D0EFF3108072B6FEE7189417
:1051400017941694159414948A4801680422114304
:1051500001600168114004910499016880221143A3
:1051600001600168114004910499016839430160AC
:10517000016839400491049901682943016000687D
:105180002840049004987C4E40253046294622460B
:10519000FDF783FC179416941597149514A93046BF
:1051A000FDF7B2FB754844617549764A764B03605A
:1051B00042608460C16015941494FEF77DFA002863
:1051C00003D0EFF3108072B6FEE76C4814A9FEF727
:1051D00037FA002803D0EFF3108072B6FEE76B4D6C
:1051E0006B4A07206B49A960E8602C616A61AC6179
:1051F000EC611794169415940F940E940835284674
:10520000FEF75AFA002803D0EFF3108072B6FEE7DB
:105210003E03149614A92846FEF74EFB002803D03F
:10522000EFF3108072B6FEE72846FEF701FD002876
:1052300003D0EFF3108072B6FEE70EA92846FEF702
:10524000FFF9002803D0EFF3108072B6FEE7079451
:1052500006940597049404A928462246FEF71EFCEE
:10526000002803D0EFF3108072B6FEE70421284631
:105270000191FEF713FA002803D0EFF3108072B605
:10528000FEE74548446145490160029941608460F8
:105290003F49C16015941494FEF70EFA002803D01C
:1052A000EFF3108072B6FEE73B4814A9FEF7C8F989
:1052B000002803D0EFF3108072B6FEE738480C21C7
:1052C000384A046244624B23DB011CC00460446022
:1052D0008160C46004610C38FFF732F8002803D005
:1052E000EFF3108072B6FEE72C212F4844542F496B
:1052F00084620484046344638463C463039A9207EE
:1053000016C00460476001998160C4600461FF2198
:10531000C2318161159414940C38FDF7D3F800283C
:1053200003D0EFF3108072B6FEE7159614971E486F
:1053300014A9FDF735F8002803D0EFF3108072B6FA
:10534000FEE700212846FEF7CBFC1348FEF75AFA89
:105350000A48FEF77FFA1248FFF75CF914A0FFF73E
:10536000D1F919A0FFF7CEF9FCF7DEFEFCE7C04645
:10537000007000402C10024000040050E4020020A5
:105380000F2700001F030000001400407C000020D5
:10539000FFFF000000040040A402002000100040B5
:1053A0002403002000440040480200200024014063
:1053B0000D0A48656C6C6F204E75636C656F2D31FE
:1053C000303733525A0D0A003E20000043088B420A
:1053D0001AD3002203098B4279D3030A8B425ED38E
:1053E000030B8B4242D3030C8B4227D30902FF22CB
:1053F00012BA030C8B4202D31212090203D0030B20
:105400008B4233D31AE0D3E0411A8041401C7047ED
:1054100003460B4371D443088B42F5D300220309A2
:105420008B4254D3030A8B4239D3030B8B421DD3D7
:10543000030C8B4202D394466EE0090AC30B8B42E5
:1054400001D3CB03C01A5241830B8B4201D38B0390
:10545000C01A5241430B8B4201D34B03C01A524135
:10546000030B8B4201D30B03C01A5241C30A8B4278
:1054700001D3CB02C01A5241830A8B4201D38B0263
:10548000C01A5241430A8B4201D34B02C01A524107
:10549000030A8B4201D30B02C01A5241CDD2C30979
:1054A0008B4201D3CB01C01A524183098B4201D3F5
:1054B0008B01C01A524143098B4201D34B01C01AE0
:1054C000524103098B4201D30B01C01A5241C30858
:1054D0008B4201D3CB00C01A524183088B4201D3C7
:1054E0008B00C01A524143088B4201D34B00C01AB3
:1054F0005241411A524110007047CA0F00D0494230
:10550000031000D34042534000229C4603098B42C3
:105510002DD3030A8B4212D38901FC2212BA030A4B
:105520008B420CD3890192118B4208D389019211CD
:105530008B4204D3890137D0921100E08909C30955
:105540008B4201D3CB01C01A524183098B4201D354
:105550008B01C01A524143098B4201D34B01C01A3F
:10556000524103098B4201D30B01C01A5241C308B7
:105570008B4201D3CB00C01A524183088B4201D326
:105580008B00C01A5241D9D243088B4201D34B0041
:10559000C01A5241411A00D2014652411046634698
:1055A0005B1000D34042704763465B1000D340421B
:1055B00001B50021004201D0C9430846C046C0469B
:1055C00002BDF8B5040C8BB2264682B25E4310468B
:1055D00058430D0C370C36040021801916467941CA
:1055E0006E43370C36048019264679416E4389197B
:1055F000F8BD00004900CA020243100000D0042098
:105600004A0D01D001221043044A490D914201D1B3
:1056100002210843012800D105207047FF07000040
:1056200030380A2801D2012070470020704700005E
:1056300010B500290AD00878002807D0054878441A
:10564000FAF77CFF002801D0002010BD0248784402
:1056500010BD0000A20300009A03000010B500294D
:105660000AD00878002807D005487844FAF766FF82
:10567000002801D0002010BD0248784410BD000071
:10568000920300008A03000003B402487844844671
:1056900003BC60475DBCFFFF03B402487844844606
:1056A00003BC6047C5BEFFFF000000000000000013
:1056B0003031323334353637383941424344454648
:1056C0004030580030313233343536373839616242
:1056D0006364656640307800040000080000000044
:1056E0000000000200010000103031323334353642
:1056F00037383961626364656678700030313233FF
:105700003435363738394142434445465850000015
:1057100002400000000000A0000000000540000062
:10572000000000C8000000000C4000000000409C89
:1057300000000000194000000020BCBE0000000076
:1057400034400000BFC91B8E00000004B5400000BB
:10575000504BCFD06607E2CF010000006C41000043
:105760003E8251AADFEEA73401000000D9420000BA
:10577000DCB5A0E23A301F97FFFFFFFFB445000001
:10578000FD25A0C8E9A3C14FFFFFFFFFFF3F0000B9
:105790000000008000000000FF3F000000000080CB
:1057A00000000000000000000000000001020304EF
:1057B0000607080900000000010203048E590008D2
:1057C00001000000AD500008AD5000088D500008E9
:1057D000B45800088559000808000000315000083E
:1057E0006D5000088D500008385800080304060862
:1057F0000C1018203000000002000000040000001F
:105800000800000010000000FDFFFFFFFBFFFFFF8E
:10581000F7FFFFFFEFFFFFFFFFFDFFFFFFFBFFFFB6
:10582000FFF7FFFFFFEFFFFF000000000400000094
:10583000020000000800000041542B4C4544324354
:105840004F4E3A436F6E74726F6C204C4544320D6C
:105850000A000D0A41545F4E4F5F4E4554574F5258
:105860004B5F4A4F494E45440D0A000D0A4F4B0D00
:105870000A000D0A41545F504152414D5F4552525A
:105880004F520D0A000D0A41545F4552524F520DBE
:105890000A000D0A41545F52585F4552524F520D53
:1058A0000A000D0A41545F425553595F4552524F09
:1058B000520D0A0041545A3A20446F20536F6D65CF
:1058C0007468696E67206F6620746865204D435563
:1058D0000D0A000D0A41545F544553545F50415224
:1058E000414D5F4F564552464C4F570D0A004154AB
:1058F0002B3C434D443E3F20202020202020203AB6
:105900002048656C70206F6E203C434D443E0D0A6C
:1059100041542B3C434D443E202020202020202079
:10592000203A2052756E203C434D443E0D0A4154AE
:105930002B3C434D443E3D3C76616C75653E203AC0
:1059400020536574207468652076616C75650D0A56
:1059500041542B3C434D443E3D3F202020202020FD
:10596000203A20476574207468652076616C7565FF
:105970000D0A000D0A6572726F7220756E6B6E6F84
:10598000776E0D0A002B4C454432434F4E005A00AF
:1059900054656D70657261747572653A2025302E9C
:1059A00032662C20565F7265663A2025642C2041B1
:1059B00044432076616C75653A2025640D0A000029
:1059C000105B000800000020100000001C0100080F
:1059D000205B000810000020B00A00003C01000815
:1059E0001C00000043000000F8FFFFFF0C00000057
:1059F0000E0000000F0000002E000000100100004B
:105A000043000000F8FFFFFF00404040404040409E
:105A10004040414141414140404040404040404081
:105A20004040404040404040400502020202020225
:105A30000202020202020202022020202020202074
:105A40002020200202020202020290909090909088
:105A50001010101010101010101010101010101046
:105A600010101010020202020202888888888888BA
:105A700008080808080808080808080808080808A6
:105A800008080808020202024000000000000000AE
:105A90000000000000000000000000000000000006
:105AA00000000000000000000000000000000000F6
:105AB00000000000000000000000000000000000E6
:105AC00000000000000000000000000000000000D6
:105AD00000000000000000000000000000000000C6
